:020000040800F2
:10000000002800203D1B00084D1900085319000866
:10001000591900085F190008651900080000000060
:100020000000000000000000000000006B19000844
:100030007719000800000000831900088F190008D4
:10004000851B0008851B0008851B0008851B000810
:10005000851B0008851B0008851B0008851B000800
:10006000851B0008851B0008851B0008851B0008F0
:10007000851B0008851B0008851B0008851B0008E0
:10008000851B0008851B0008851B0008851B0008D0
:10009000851B0008851B0008851B0008851B0008C0
:1000A000851B0008851B0008851B0008851B0008B0
:1000B0009D190008851B000800000000851B000832
:1000C000851B00080000000000000000851B0008E0
:1000D00000000000851B0008851B000800000000D0
:1000E000851B0008851B0008851B00080000000018
:1000F0000000000000000000000000000000000000
:0C01000000000000000000005FF808F1A3
:1001100010B5054C237833B9044B13B10448AFF341
:1001200000800123237010BDE001002000000000CA
:10013000345F000808B5034B1BB103490348AFF314
:10014000008008BD00000000E4010020345F0008CA
:10015000034613F8012B002AFBD1181A0138704707
:1001600081F0004102E000BF83F0004330B54FEA68
:1001700041044FEA430594EA050F08BF90EA020FD5
:100180001FBF54EA000C55EA020C7FEA645C7FEA68
:10019000655C00F0E2804FEA5454D4EB5555B8BF8B
:1001A0006D420CDD2C4480EA020281EA030382EAFC
:1001B000000083EA010180EA020281EA0303362D8E
:1001C00088BF30BD11F0004F4FEA01314FF4801C61
:1001D0004CEA113102D0404261EB410113F0004F73
:1001E0004FEA03334CEA133302D0524263EB43032A
:1001F00094EA050F00F0A780A4F10104D5F1200EC8
:100200000DDB02FA0EFC22FA05F2801841F1000122
:1002100003FA0EF2801843FA05F359410EE0A5F1F6
:1002200020050EF1200E012A03FA0EFC28BF4CF027
:10023000020C43FA05F3C01851EBE37101F00045DD
:1002400007D54FF0000EDCF1000C7EEB00006EEBEA
:100250000101B1F5801F1BD3B1F5001F0CD3490874
:100260005FEA30004FEA3C0C04F101044FEA4452CB
:1002700012F5800F80F09A80BCF1004F08BF5FEA52
:10028000500C50F1000041EB045141EA050130BD32
:100290005FEA4C0C404141EB0101013C28BFB1F544
:1002A000801FE9D291F0000F04BF01460020B1FA8F
:1002B00081F308BF2033A3F10B03B3F120020CDA62
:1002C0000C3208DD02F1140CC2F10C0201FA0CF040
:1002D00021FA02F10CE002F11402D8BFC2F1200CA5
:1002E00001FA02F120FA0CFCDCBF41EA0C0190405B
:1002F000E41AA2BF01EB0451294330BD6FEA0404A4
:100300001F3C1CDA0C340EDC04F11404C4F120028E
:1003100020FA04F001FA02F340EA030021FA04F3A0
:1003200045EA030130BDC4F10C04C4F1200220FAF7
:1003300002F001FA04F340EA0300294630BD21FA35
:1003400004F0294630BD94F0000F83F4801306BFFB
:1003500081F480110134013D4EE77FEA645C18BFEF
:100360007FEA655C29D094EA050F08BF90EA020F86
:1003700005D054EA000C04BF1946104630BD91EA7E
:10038000030F1EBF0021002030BD5FEA545C05D181
:100390004000494128BF41F0004130BD14F58004C0
:1003A0003CBF01F5801130BD01F0004545F0FE4134
:1003B00041F470014FF0000030BD7FEA645C1ABF69
:1003C000194610467FEA655C1CBF0B46024650EAA0
:1003D000013406BF52EA033591EA030F41F40021CC
:1003E00030BD00BF90F0000F04BF0021704730B552
:1003F0004FF4806404F132044FF000054FF0000127
:1004000050E700BF90F0000F04BF0021704730B5E7
:100410004FF4806404F1320410F0004548BF4042BC
:100420004FF000013EE700BF42004FEAE2014FEA11
:1004300031014FEA02701FBF12F07F4393F07F4FEC
:1004400081F06051704732F07F4208BF704793F0EF
:100450007F4F04BF41F40021704730B54FF4607402
:1004600001F0004521F000411CE700BF50EA010205
:1004700008BF704730B54FF000050AE050EA0102AE
:1004800008BF704730B511F0004502D5404261EB1E
:1004900041014FF4806404F132045FEA915C3FF45F
:1004A000D8AE4FF003025FEADC0C18BF03325FEAFC
:1004B000DC0C18BF033202EBDC02C2F1200300FAAD
:1004C00003FC20FA02F001FA03FE40EA0E0021FAD2
:1004D00002F11444BDE600BF70B54FF0FF0C4CF4C0
:1004E000E06C1CEA11541DBF1CEA135594EA0C0F72
:1004F00095EA0C0F00F0DEF82C4481EA030621EAAD
:100500004C5123EA4C5350EA013518BF52EA0335E7
:1005100041F4801143F4801338D0A0FB02CE4FF099
:100520000005E1FB02E506F00042E0FB03E54FF0C9
:100530000006E1FB03569CF0000F18BF4EF0010EC1
:10054000A4F1FF04B6F5007F64F5407404D25FEABD
:100550004E0E6D4146EB060642EAC62141EA555170
:100560004FEAC52040EA5E504FEACE2EB4F1FD0CB2
:1005700088BFBCF5E06F1ED8BEF1004F08BF5FEA30
:10058000500E50F1000041EB045170BD06F00046E2
:1005900046EA010140EA020081EA0301B4EB5C048F
:1005A000C2BFD4EB0C0541EA045170BD41F4801187
:1005B0004FF0000E013C00F3AB8014F1360FDEBFAC
:1005C000002001F0004170BDC4F10004203C35DA88
:1005D0000C341BDC04F11404C4F1200500FA05F30B
:1005E00020FA04F001FA05F240EA020001F00042AC
:1005F00021F0004110EBD37021FA04F642EB060122
:100600005EEA430E08BF20EAD37070BDC4F10C044B
:10061000C4F1200500FA04F320FA05F001FA04F20F
:1006200040EA020001F0004110EBD37041F10001FB
:100630005EEA430E08BF20EAD37070BDC4F1200506
:1006400000FA05F24EEA020E20FA04F301FA05F26E
:1006500043EA020321FA04F001F0004121FA04F216
:1006600020EA020000EBD3705EEA430E08BF20EAE6
:10067000D37070BD94F0000F0FD101F00046400020
:1006800041EB010111F4801F08BF013CF7D041EAA2
:10069000060195F0000F18BF704703F000465200A6
:1006A00043EB030313F4801F08BF013DF7D043EA77
:1006B0000603704794EA0C0F0CEA135518BF95EA2D
:1006C0000C0F0CD050EA410618BF52EA4306D1D1B4
:1006D00081EA030101F000414FF0000070BD50EAD3
:1006E000410606BF1046194652EA430619D094EA5D
:1006F0000C0F02D150EA013613D195EA0C0F05D147
:1007000052EA03361CBF104619460AD181EA03019A
:1007100001F0004141F0FE4141F470014FF0000052
:1007200070BD41F0FE4141F4780170BD70B54FF0ED
:10073000FF0C4CF4E06C1CEA11541DBF1CEA13556D
:1007400094EA0C0F95EA0C0F00F0A7F8A4EB05044F
:1007500081EA030E52EA03354FEA013100F0888046
:100760004FEA03334FF0805545EA131343EA12630F
:100770004FEA022245EA111545EA10654FEA0026C4
:100780000EF000419D4208BF964244F1FD0404F57D
:10079000407402D25B084FEA3202B61A65EB0305D9
:1007A0005B084FEA32024FF480104FF4002CB6EB96
:1007B000020E75EB030E22BFB61A754640EA0C0016
:1007C0005B084FEA3202B6EB020E75EB030E22BF56
:1007D000B61A754640EA5C005B084FEA3202B6EB97
:1007E000020E75EB030E22BFB61A754640EA9C0056
:1007F0005B084FEA3202B6EB020E75EB030E22BF26
:10080000B61A754640EADC0055EA060E18D04FEAE3
:10081000051545EA16754FEA06164FEAC30343EA83
:1008200052734FEAC2025FEA1C1CC0D111F4801F50
:100830000BD141EA00014FF000004FF0004CB6E749
:1008400011F4801F04BF01430020B4F1FD0C88BFE8
:10085000BCF5E06F3FF6AFAEB5EB030C04BFB6EBF3
:10086000020C5FEA500C50F1000041EB045170BDE6
:100870000EF0004E4EEA113114EB5C04C2BFD4EB13
:100880000C0541EA045170BD41F480114FF0000E97
:10089000013C90E645EA060E8DE60CEA135594EA13
:1008A0000C0F08BF95EA0C0F3FF43BAF94EA0C0F16
:1008B0000AD150EA01347FF434AF95EA0C0F7FF48B
:1008C00025AF104619462CE795EA0C0F06D152EADF
:1008D00003353FF4FDAE1046194622E750EA4106C3
:1008E00018BF52EA43067FF4C5AE50EA41047FF4D4
:1008F0000DAF52EA43057FF4EBAE12E74FF0FF3C39
:1009000006E000BF4FF0010C02E000BF4FF0010C09
:100910004DF804CD4FEA410C7FEA6C5C4FEA430C82
:1009200018BF7FEA6C5C1BD001B050EA410C0CBFD1
:1009300052EA430C91EA030F02BF90EA020F002033
:10094000704710F1000F91EA030F58BF994208BF9A
:1009500090422CBFD8176FEAE37040F00100704757
:100960004FEA410C7FEA6C5C02D150EA013C07D1AE
:100970004FEA430C7FEA6C5CD6D152EA033CD3D0F9
:100980005DF8040B704700BF8446104662468C46F3
:100990001946634600E000BF01B5FFF7B7FF002826
:1009A00048BF10F1000F01BD4DF808EDFFF7F4FF4F
:1009B0000CBF012000205DF808FB00BF4DF808EDDA
:1009C000FFF7EAFF34BF012000205DF808FB00BFFD
:1009D0004DF808EDFFF7E0FF94BF012000205DF81F
:1009E00008FB00BF4DF808EDFFF7CEFF94BF0120D4
:1009F00000205DF808FB00BF4DF808EDFFF7C4FFCD
:100A000034BF012000205DF808FB00BF4FEA410C15
:100A10007FEA6C5C02D150EA013C0AD14FEA430CF8
:100A20007FEA6C5C02D152EA033C02D14FF0000035
:100A300070474FF0010070474FEA410212F5001273
:100A400015D211D56FF47873B3EB625212D94FEA15
:100A5000C12343F0004343EA505311F0004F23FAFF
:100A600002F018BF404270474FF00000704750EA54
:100A7000013005D111F0004008BF6FF00040704711
:100A80004FF00000704700BF80B582B000AF034652
:100A9000FB7102211A4801F085FB0346002B03D1AC
:100AA000FB79184AD35C26E00421154801F07AFB53
:100AB0000346002B04D1FB790433124AD35C1AE0BD
:100AC0004FF400610E4801F06DFB0346002B04D18A
:100AD000FB7908330B4AD35C0DE04FF48051084892
:100AE00001F060FB0346002B04D1FB790C33054A6F
:100AF000D35C00E0FF2318460837BD4680BD00BF29
:100B0000000C0140885F000880B582B000AF012270
:100B100013212E4801F05DFB012201212C4801F038
:100B200058FB00220121294801F053FB0020FFF768
:100B3000ABFF0346FB7101220121244801F049FB70
:100B4000FB79FF2B01D0FB793CE0002202211F48FA
:100B500001F03FFB0120FFF797FF0346FB710122E5
:100B600002211A4801F035FBFB79FF2B01D0FB79FC
:100B700028E000221021154801F02BFB0220FFF78E
:100B800083FF0346FB7101221021104801F021FB75
:100B9000FB79FF2B01D0FB7914E0002201210C48E6
:100BA00001F017FB0320FFF76FFF0346FB710122E3
:100BB0000121074801F00DFBFB79FF2B01D0FB79E8
:100BC00000E0FF2318460837BD4680BD00080140FD
:100BD000000C014080B582B000AFFFF795FF0346DF
:100BE000FB71FB79FF2B0AD0FFF78EFF0346FB71E9
:100BF000FB79FF2B03D0FB79184600F091FA00BF78
:100C00000837BD4680BD0000B0B592B000AFF860B7
:100C1000B9603B601346FB7100237B6400233B6497
:100C20000023FB630023BB6300237B6300233B6340
:100C3000BB6D022B49D10023FB653EE0A14A7B6BD3
:100C400013441B782E2B25D17B6B01339D4AD35C3B
:100C5000302B1DD17B6B02339A4AD35C302B17D1DA
:100C60007B6B0333974AD35C302B11D17B6B0433FE
:100C7000944AD35C302B0BD17B6B0533914AD35C08
:100C8000302B05D17B6B06338E4AD35C302B1BD0C7
:100C900001233B637B6BFA6813448A497A6B0A44ED
:100CA00012781A70874A7B6B134400221A70FB6D0E
:100CB0000133FB657B6B01337B63824A7B6B13449F
:100CC0001B78002BBAD100E000BF3B68012B4AD152
:100CD0000023FB6207E07B4AFB6A134400221A7080
:100CE000FB6A0133FB62FB6A0F2BF4DD3BE03B6BDD
:100CF000012B02D10123FB6339E0FB6BFA6813443B
:100D00001B782D2B1DD1FB6B0133FB6311E0FB6BBB
:100D1000FA6813441B78303BBB617A6C13469B0026
:100D200013445B001A46BB6913447B64FB6B0133BD
:100D3000FB63FA6BFB6D9A42E9DB7B6C5B427B6485
:100D400015E0FB6BFA6813441B78303BFB617A6C4F
:100D500013469B0013445B001A46FB6913447B64F3
:100D6000FB6B0133FB63FA6BFB6D9A42BFDB35E033
:100D7000BB6BBA6813441B782D2B1DD1BB6B0133A1
:100D8000BB6311E0BB6BBA6813441B78303B3B611B
:100D90003A6C13469B0013445B001A463B691344AC
:100DA0003B64BB6B0133BB63BA6B3B6E9A42E9DBBE
:100DB0003B6C5B423B6415E0BB6BBA6813441B7829
:100DC000303B7B613A6C13469B0013445B001A4630
:100DD0007B6913443B64BB6B0133BB63BA6B3B6EF3
:100DE0009A42C5DBFB79002B08D10B21012000F0D2
:100DF000F9FB354800F0DAFB00233BE1FB6B002BED
:100E000008D10B21012000F0EDFB2F4800F0CEFBB4
:100E100000232FE1BB6B002B08D10B21012000F038
:100E2000E1FB294800F0C2FB002323E1FB79782B8A
:100E300050D0782B00F3D3802F2B00F099802F2BEC
:100E400000F3CD802B2B02D02D2B1BD0C7E03B6BAA
:100E5000012B0DD1386CFFF7D5FA1C4BD3E90023D9
:100E6000FFF784F902460B461849C1E90023B6E0B2
:100E70007A6C3B6C13441A464FEAE2731449C1E999
:100E80000023ACE03B6B012B11D1104BD3E90045A3
:100E9000386CFFF7B7FA02460B4620462946FFF7A3
:100EA00063F902460B460949C1E9002397E07A6CD1
:100EB0003B6CD31A1A464FEAE2730549C1E9002395
:100EC0008DE000BF40020020505F000808020020B3
:100ED000000200203B6B012B0DD1386CFFF792FA1A
:100EE000664BD3E90023FFF7F7FA02460B46634946
:100EF000C1E9002309E07B6C3A6C02FB03F31A465C
:100F00004FEAE2735E49C1E90023386CFFF77AFAD1
:100F10005A4BD3E90023FFF7DFFA02460B4610468F
:100F200019464FF00002574BFFF748FD0346002BD0
:100F300000D154E0386CFFF765FA504BD3E9002339
:100F4000FFF7CAFA02460B46104619464FF0000258
:100F50004D4BFFF751FD0346002B00D13FE006212A
:100F6000012000F03FFB494800F020FB002381E016
:100F70003B6C002B08D10B21012000F033FB4448CF
:100F800000F014FB002375E03B6B012B11D13B4BB0
:100F9000D3E90045386CFFF735FA02460B46204688
:100FA0002946FFF7C3FB02460B463449C1E900233B
:100FB00014E001233B63786CFFF724FA04460D46E6
:100FC000386CFFF71FFA02460B4620462946FFF70A
:100FD000ADFB02460B462949C1E9002300BF3B6B2C
:100FE000002B07D1264BD3E900232A492A4802F0D7
:100FF00067FD06E0214BD3E900232849264802F08B
:101000005FFD0023BB6200237B620CE0B96A012014
:1010100000F0E8FA002000F0A7FABB6A0133BB62D7
:101020007B6A01337B627B6A0F2BEFDD00237B63DE
:1010300002E07B6B01337B63174A7B6B13441B78A5
:10104000002BF6D17B6BC3F110031946012000F091
:10105000C9FA00233B6209E00F4A3B6A13441B783C
:10106000184600F081FA3B6A01333B623B6A0F2B62
:10107000F2DD012318464837BD46B0BD0802002006
:10108000000200200000E0C10000E041585F0008BD
:10109000505F0008645F000840020020685F00089D
:1010A00080B483B000AF00237B6011E0144A7B68FA
:1010B000134400221A70134A7B68134400221A70EA
:1010C000114A7B68134400221A707B6801337B60ED
:1010D0007B680F2BEADD0D4B00221A700C4B0022AF
:1010E0001A600C4B00221A600B4B00221A600B4B4B
:1010F00001221A6000BF0C37BD4680BC704700BF9C
:101100007002002050020020600200203C020020FB
:101110001C020020200200201002002014020020E7
:1011200090B591B004AF0346FB719F4B1B68002B39
:1011300007D19E4B1B68002B03D1FFF7B1FF00F0D6
:1011400073FAFB79232B04D1FFF7AAFF00F06CFAA6
:1011500066E1FB793D2B34D1954B1B68012B07D100
:101160000B21012000F03EFA924800F01FFA57E1EF
:10117000914B1A68914B1B6813440F2B04DDFFF74A
:101180008FFF00F051FA4BE18D4B1878874B1C68AC
:10119000854B1B68884A1268884909680291019248
:1011A00000932346024687498748FFF72DFD0346F3
:1011B0007D4A13607D4B00221A607D4B01221A602C
:1011C0002EE1794B1B68012B6CD1784B1B68002BEF
:1011D00068D10023FB6211E07B4AFB6A13440022C2
:1011E0001A70784AFB6A134400221A70774AFB6A25
:1011F000134400221A70FB6A0133FB62FB6A0F2B57
:10120000EADD6F4B00221A700023BB6200237B6271
:101210000CE0B96A002000F0E5F9002000F0A4F924
:10122000BB6A0133BB627B6A01337B627B6A0F2B33
:10123000EFDD00233B620BE03B6A0133634AD15C84
:10124000624A3B6A13440A461A703B6A01333B62A6
:101250003B6A0E2BF0DD5D4AFB79D3730021002041
:1012600000F0C0F90023FB6109E0584AFB69134410
:101270001B78184600F078F9FB690133FB61FB69C4
:101280000F2BF2DD4E4AFB7913704B4B01221A6093
:101290004A4B00221A60444B02221A604C4B012236
:1012A0001A60BDE0464B1B78002B0CD0FB792B2B32
:1012B00005D0FB79782B02D0FB792F2B03D1404A44
:1012C000FB791370ACE0FB792F2B1CD9FB79392B00
:1012D00019D83F4B1B68002B0AD1374B1B683A4982
:1012E000FA79CA54344B1B680133334A136058E00F
:1012F000324B1B683349FA79CA54304B1B680133AF
:101300002E4A13604DE0FB792B2B08D0FB792D2B57
:1013100005D0FB79782B02D0FB792F2B24D1264BDB
:101320001B68002B0AD1244B1B682749FA79CA5441
:10133000214B1B680133204A136032E0244B1B68A9
:10134000002B06D11E4AFB791370214B01221A6033
:1013500027E01A4B1B681B49FA79CA54174B1B68C4
:101360000133164A13601CE00023BB6100237B613C
:101370000CE0B969012000F035F9002000F0F4F824
:10138000BB690133BB617B6901337B617B690F2BD7
:10139000EFDD0B21012000F025F9064800F006F9E9
:1013A0003EE000233B6121E02402002014020020E3
:1013B00018020020705F00081C020020200200209C
:1013C0003C02002050020020700200206002002039
:1013D000100200203B690133134AD15C124A3B6979
:1013E00013440A461A703B6901333B613B690E2B7B
:1013F000F0DD0D4AFB79D3730021002000F0F2F8F4
:101400000023FB6009E0084AFB6813441B78184678
:1014100000F0AAF8FB680133FB60FB680F2BF2DDDC
:101420003437BD4690BD00BF6002002080B58AB051
:1014300000AF0346FB71FB7903F001037B62FB798C
:1014400003F002033B62FB7903F00403FB61FB79C9
:1014500003F00803BB61FB7903F010037B61FB79A8
:1014600003F020033B61FB7903F04003FB60FB7951
:1014700003F08003BB607B6ADBB21A4608211D487B
:1014800000F0A7FE3B6ADBB21A460421194800F0BF
:10149000A0FEFB69DBB21A464FF48061154800F0EC
:1014A00098FEBB69DBB21A460821134800F091FE92
:1014B0007B69DBB21A4620210F4800F08AFE3B69A7
:1014C000DBB21A4610210C4800F083FEFB68DBB249
:1014D0001A464FF48061084800F07BFEBB68DBB21F
:1014E0001A464FF48071034800F073FE00BF28379E
:1014F000BD4680BD00080140000C014080B500AF32
:10150000382000F00FF80C2000F00CF8062000F056
:1015100009F8012000F006F8802000F003F800BF71
:1015200080BD000080B582B000AF0346FB71002291
:101530004FF480710B4800F04CFEFB791846FFF722
:1015400075FF00224FF40071064800F042FE0122B0
:101550004FF40071034800F03CFE00BF0837BD4661
:1015600080BD00BF000C014080B582B000AF0346D3
:10157000FB7101224FF480710B4800F02AFEFB79C9
:101580001846FFF753FF00224FF40071064800F0A1
:1015900020FE01224FF40071034800F01AFE00BF44
:1015A0000837BD4680BD00BF000C014080B584B047
:1015B00000AF78600023FB6009E0FB687A681344A1
:1015C0001B781846FFF7D0FFFB680133FB60FB6810
:1015D0007A6813441B78002BEFD100BF00BF10378F
:1015E000BD4680BD80B582B000AF786039603C20D8
:1015F000FFF798FF7B68002B03D07B68012B05D099
:1016000009E03B6843F080033B6004E03B6843F043
:10161000C0033B6000BF3B68DBB21846FFF782FFA8
:1016200000BF0837BD4680BD80B500AF0120FFF781
:1016300079FF00BF80BD000080B500AF00F0A4FAC4
:1016400000F012F800F098F800F04AF8054801F0B0
:1016500011FAFFF753FFFFF7BDFA4FF4967000F051
:10166000F5FAF8E78002002080B590B000AF07F1EE
:10167000180328220021184601F0BAFD3B1D002264
:101680001A605A609A60DA601A610223BB61012312
:10169000BB621023FB6200237B6307F1180318462B
:1016A00000F0B0FD0346002B01D000F0D9F80F2365
:1016B0007B600023BB600023FB6000233B610023B1
:1016C0007B613B1D0021184601F01CF80346002BEE
:1016D00001D000F0C5F800BF4037BD4680BD000016
:1016E00080B586B000AF07F1080300221A605A6087
:1016F0009A60DA603B4600221A605A601D4B4FF038
:1017000080421A601B4B41F63F725A60194B00220F
:101710009A60184B0922DA60164B00221A61154BA9
:1017200000229A61134801F055F90346002B01D0BD
:1017300000F096F84FF48053BB6007F10803194698
:101740000C4801F0EBFA0346002B01D000F088F8BA
:1017500000233B6000237B603B461946054801F0AF
:10176000B3FC0346002B01D000F07AF800BF183715
:10177000BD4680BD8002002080B586B000AF07F175
:10178000080300221A605A609A60DA602C4B9B6949
:101790002B4A43F004039361294B9B6903F0040334
:1017A0007B607B68264B9B69254A43F00803936165
:1017B000234B9B6903F008033B603B68002240F227
:1017C0001F51204800F005FD002241F63F711E48E0
:1017D00000F0FFFC012241F606011B4800F0F9FC75
:1017E00040F21F53BB600123FB6000233B610223D7
:1017F0007B6107F108031946124800F059FB41F6D6
:101800000F73BB600123FB6000233B6102237B61FC
:1018100007F1080319460C4800F04AFB3023BB606F
:101820000123FB6002233B6102237B6107F1080374
:101830001946054800F03CFB00BF1837BD4680BD87
:101840000010024000080140000C014080B582B049
:1018500000AF786000F00AF800BF0837BD4680BDD1
:1018600080B400AF72B600BFFEE7000080B400AFE6
:10187000094B1B68002B0BDD074B1B68013B064A1D
:101880001360054B1B68002B02DC044B01221A601D
:1018900000BFBD4680BC70472C02002028020020FB
:1018A00080B485B000AF154B9B69144A43F0010327
:1018B0009361124B9B6903F00103BB60BB680F4B44
:1018C000DB690E4A43F08053D3610C4BDB6903F0B4
:1018D00080537B607B680A4B5B68FB60FB6823F08E
:1018E000E063FB60FB6843F00073FB60044AFB6845
:1018F000536000BF1437BD4680BC704700100240E3
:101900000000014080B584B000AF78607B681B6840
:10191000B3F1804F13D10C4BDB690B4A43F0010349
:10192000D361094BDB6903F00103FB60FB68002214
:1019300000211C2000F085FA1C2000F09EFA00BF58
:101940001037BD4680BD00BF0010024080B400AF1C
:10195000FEE780B400AFFEE780B400AFFEE780B4DE
:1019600000AFFEE780B400AFFEE780B400AF00BF79
:10197000BD4680BC704780B400AF00BFBD4680BC90
:10198000704780B400AF00BFBD4680BC704780B5D3
:1019900000AF00F03FF900BF80BD000080B500AF90
:1019A000024801F0B3F800BF80BD00BF80020020F4
:1019B00080B400AF01231846BD4680BC704780B597
:1019C00082B000AF7860396001F0E8FB0346162270
:1019D0001A604FF0FF3318460837BD4680BD80B50A
:1019E00082B000AF78604FF0FF317868FFF7E7FF13
:1019F000FEE780B586B000AFF860B9607A6000237A
:101A00007B610AE0AFF300800146BB685A1CBA60F4
:101A1000CAB21A707B6901337B617A697B689A422A
:101A2000F0DB7B6818461837BD4680BD80B586B0B0
:101A300000AFF860B9607A6000237B6109E0BB68A1
:101A40005A1CBA601B781846AFF300807B690133DB
:101A50007B617A697B689A42F1DB7B6818461837AC
:101A6000BD4680BD80B483B000AF78604FF0FF33D7
:101A700018460C37BD4680BC704780B483B000AFB9
:101A8000786039603B684FF400525A600023184672
:101A90000C37BD4680BC704780B483B000AF78601F
:101AA000012318460C37BD4680BC704780B485B012
:101AB00000AFF860B9607A60002318461437BD465D
:101AC00080BC704780B586B000AF7860144A154B73
:101AD000D31A7B617B693B61134B1B68002B02D1DE
:101AE000114B124A1A60104B1A687B6813443A690A
:101AF0009A4207D201F052FB03460C221A604FF0C3
:101B0000FF3309E0084B1B68FB60074B1A687B68D2
:101B10001344054A1360FB6818461837BD4680BD5C
:101B2000002800200004000030020020E002002015
:101B300080B400AF00BFBD4680BC70470C480D4963
:101B40000D4A002302E0D458C4500433C4188C4218
:101B5000F9D30A4A0A4C002301E013600432A2427E
:101B6000FBD3FFF7E5FF01F01FFBFFF765FD7047B3
:101B700000000020DC01002094630008E001002048
:101B8000DC020020FEE7000080B500AF084B1B68B8
:101B9000074A43F010031360032000F047F90F20B9
:101BA00000F008F8FFF77CFE0023184680BD00BF58
:101BB0000020024080B582B000AF7860124B1A68F6
:101BC000124B1B7819464FF47A73B3FBF1F3B2FB57
:101BD000F3F3184600F05FF90346002B01D0012310
:101BE0000EE07B680F2B0AD8002279684FF0FF3097
:101BF00000F027F9064A7B681360002300E0012308
:101C000018460837BD4680BD0000002008000020AF
:101C10000400002080B400AF054B1B781A46054B2A
:101C20001B681344034A136000BFBD4680BC704765
:101C300008000020C802002080B400AF024B1B68DF
:101C40001846BD4680BC7047C802002080B584B0ED
:101C500000AF7860FFF7F0FFB8607B68FB60FB685F
:101C6000B3F1FF3F05D00A4B1B781A46FB681344BB
:101C7000FB6000BFFFF7E0FF0246BB68D31AFA68BB
:101C80009A42F7D800BF00BF1037BD4680BD00BFE5
:101C90000800002080B485B000AF78607B6803F056
:101CA0000703FB600C4BDB68BB60BA684FF6FF03B1
:101CB0001340BB60FB681A02BB68134343F0BF6369
:101CC00043F40033BB60044ABB68D36000BF1437E1
:101CD000BD4680BC704700BF00ED00E080B400AF9F
:101CE000044BDB681B0A03F007031846BD4680BCA3
:101CF000704700BF00ED00E080B483B000AF034642
:101D0000FB7197F90730002B0BDBFB7903F01F0207
:101D1000064997F907305B09012000FA02F241F801
:101D2000232000BF0C37BD4680BC704700E100E0B7
:101D300080B483B000AF03463960FB7197F9073078
:101D4000002B0ADB3B68DAB20C4997F90730120125
:101D5000D2B20B4483F800230AE03B68DAB20849A8
:101D6000FB7903F00F03043B1201D2B20B441A7645
:101D700000BF0C37BD4680BC704700BF00E100E0EB
:101D800000ED00E080B489B000AFF860B9607A601F
:101D9000FB6803F00703FB61FB69C3F10703042B36
:101DA00028BF0423BB61FB690433062B02D9FB69FE
:101DB000033B00E000237B614FF0FF32BB6902FA76
:101DC00003F3DA43BB681A407B699A404FF0FF3156
:101DD0007B6901FA03F3D9437B680B401343184630
:101DE0002437BD4680BC704780B582B000AF7860B4
:101DF0007B68013BB3F1807F01D301230FE00A4AE6
:101E00007B68013B53600F214FF0FF30FFF790FFDD
:101E1000054B00229A60044B07221A6000231846E3
:101E20000837BD4680BD00BF10E000E080B582B03D
:101E300000AF78607868FFF72DFF00BF0837BD4618
:101E400080BD80B586B000AF0346B9607A60FB7391
:101E500000237B61FFF742FF78617A68B96878698F
:101E6000FFF790FF024697F90F3011461846FFF72B
:101E70005FFF00BF1837BD4680BD80B582B000AFA0
:101E80000346FB7197F907301846FFF735FF00BF8F
:101E90000837BD4680BD80B582B000AF78607868F5
:101EA000FFF7A2FF034618460837BD4680BD000075
:101EB00080B48BB000AF7860396000237B62002370
:101EC0003B6248E101227B6A02FA03F3FB613B6853
:101ED0001B68FA691340BB61BA69FB699A4240F01A
:101EE00037813B685B68A34A93425ED0A14A934224
:101EF00075D8A14A934258D09F4A93426FD89F4ABF
:101F0000934252D09D4A934269D89D4A93424CD005
:101F10009B4A934263D89B4A934246D0994A934244
:101F20005DD8122B2AD8122B59D801A252F823F0CF
:101F3000AB1F0008851F0008971F0008D91F000865
:101F4000DF1F0008DF1F0008DF1F0008DF1F000879
:101F5000DF1F0008DF1F0008DF1F0008DF1F000869
:101F6000DF1F0008DF1F0008DF1F0008DF1F000859
:101F7000DF1F00088D1F0008A11F0008824A93423E
:101F800013D02CE03B68DB683B6229E03B68DB68F0
:101F900004333B6224E03B68DB6808333B621FE0AC
:101FA0003B68DB680C333B621AE03B689B68002BA4
:101FB00002D104233B6213E03B689B68012B05D1EF
:101FC00008233B627B68FA691A6109E008233B62D7
:101FD0007B68FA695A6103E000233B6200E000BFBE
:101FE000BB69FF2B01D87B6801E07B6804337B6110
:101FF000BB69FF2B02D87B6A9B0002E07B6A083B2F
:102000009B003B617B691A680F213B6901FA03F36E
:10201000DB431A40396A3B6901FA03F31A437B69CF
:102020001A603B685B6803F08053002B00F09080DF
:10203000564B9B69554A43F001039361534B9B698F
:1020400003F00103BB60BB68514A7B6A9B08023303
:1020500052F82330FB607B6A03F003039B000F22DE
:1020600002FA03F3DB43FA681340FB607B68494ADA
:1020700093420DD07B68484A934207D07B68474A19
:10208000934201D1022304E0032302E0012300E094
:1020900000237A6A02F0030292009340FA68134325
:1020A000FB603B497B6A9B080233FA6841F82320B6
:1020B0003B685B6803F48033002B06D0384B1A680A
:1020C0003749BB6913430B6006E0354B1A68BB699F
:1020D000DB43334913400B603B685B6803F4003318
:1020E000002B06D02E4B5A682D49BB6913434B6019
:1020F00006E02B4B5A68BB69DB43294913404B6010
:102100003B685B6803F48013002B06D0244B9A686D
:102110002349BB6913438B6006E0214B9A68BB6976
:10212000DB431F4913408B603B685B6803F400137B
:10213000002B06D01A4BDA681949BB691343CB60F0
:1021400006E0174BDA68BB69DB4315491340CB60E7
:102150007B6A01337B623B681A687B6A22FA03F36D
:10216000002B7FF4AFAE00BF00BF2C37BD4680BC54
:10217000704700BF00003210000031100000221034
:102180000000211000001210000011100010024089
:102190000000014000080140000C01400010014017
:1021A0000004014080B485B000AF78600B467B80AE
:1021B0007B689A687B881340002B02D00123FB7355
:1021C00001E00023FB73FB7B18461437BD4680BC3F
:1021D000704780B483B000AF78600B467B801346B5
:1021E0007B707B78002B03D07A887B681A6103E0D0
:1021F0007B881A047B681A6100BF0C37BD4680BC1F
:102200007047000080B586B000AF78607B68002B17
:1022100001D101236CE27B681B6803F00103002BF2
:1022200000F08780924B5B6803F00C03042B0CD00A
:102230008F4B5B6803F00C03082B12D18C4B5B684F
:1022400003F48033B3F5803F0BD1894B1B6803F453
:102250000033002B6CD07B685B68002B68D10123B6
:1022600046E27B685B68B3F5803F06D1804B1B6814
:102270007F4A43F4803313602EE07B685B68002B59
:102280000CD17B4B1B687A4A23F480331360784B64
:102290001B68774A23F4802313601DE07B685B682A
:1022A000B3F5A02F0CD1724B1B68714A43F4802305
:1022B00013606F4B1B686E4A43F4803313600BE06E
:1022C0006B4B1B686A4A23F480331360684B1B68AE
:1022D000674A23F4802313607B685B68002B13D06C
:1022E000FFF7AAFC386108E0FFF7A6FC02463B694D
:1022F000D31A642B01D90323FAE15D4B1B6803F465
:102300000033002BF0D014E0FFF796FC386108E0B2
:10231000FFF792FC02463B69D31A642B01D90323D1
:10232000E6E1534B1B6803F40033002BF0D100E0CF
:1023300000BF7B681B6803F00203002B63D04C4B8B
:102340005B6803F00C03002B0BD0494B5B6803F078
:102350000C03082B1CD1464B5B6803F48033002B25
:1023600016D1434B1B6803F00203002B05D07B689A
:102370001B69012B01D00123BAE13D4B1B6823F0FF
:10238000F8027B685B69DB00394913430B603AE074
:102390007B681B69002B20D0364B01221A60FFF7A7
:1023A0004BFC386108E0FFF747FC02463B69D31A53
:1023B000022B01D903239BE12D4B1B6803F0020381
:1023C000002BF0D02A4B1B6823F0F8027B685B6976
:1023D000DB00274913430B6015E0264B00221A60EF
:1023E000FFF72AFC386108E0FFF726FC02463B694C
:1023F000D31A022B01D903237AE11D4B1B6803F08A
:102400000203002BF0D17B681B6803F00803002B4C
:102410003AD07B689B69002B19D0174B01221A60B8
:10242000FFF70AFC386108E0FFF706FC02463B694B
:10243000D31A022B01D903235AE10D4B5B6A03F037
:102440000203002BF0D0012000F0A6FA1CE00A4B9A
:1024500000221A60FFF7F0FB38610FE0FFF7ECFB9A
:1024600002463B69D31A022B08D9032340E100BF7F
:102470000010024000004242800442429E4B5B6AD0
:1024800003F00203002BE9D17B681B6803F004030F
:10249000002B00F0A6800023FB75974BDB6903F04F
:1024A0008053002B0DD1944BDB69934A43F080534A
:1024B000D361914BDB6903F08053BB60BB680123A0
:1024C000FB758E4B1B6803F48073002B18D18B4B6C
:1024D0001B688A4A43F480731360FFF7ADFB3861D1
:1024E00008E0FFF7A9FB02463B69D31A642B01D928
:1024F0000323FDE0814B1B6803F48073002BF0D0B5
:102500007B68DB68012B06D17B4B1B6A7A4A43F060
:10251000010313622DE07B68DB68002B0CD1764B46
:102520001B6A754A23F001031362734B1B6A724ADC
:1025300023F0040313621CE07B68DB68052B0CD1DD
:102540006D4B1B6A6C4A43F0040313626A4B1B6AAF
:10255000694A43F0010313620BE0674B1B6A664A4A
:1025600023F001031362644B1B6A634A23F00403E4
:1025700013627B68DB68002B15D0FFF75DFB3861C9
:102580000AE0FFF759FB02463B69D31A41F2883251
:10259000934201D90323ABE0574B1B6A03F00203BC
:1025A000002BEED014E0FFF747FB38610AE0FFF79D
:1025B00043FB02463B69D31A41F28832934201D968
:1025C000032395E04C4B1B6A03F00203002BEED172
:1025D000FB7D012B05D1484BDB69474A23F0805333
:1025E000D3617B68DB69002B00F08180424B5B6824
:1025F00003F00C03082B61D07B68DB69022B46D10A
:102600003F4B00221A60FFF717FB386108E0FFF725
:1026100013FB02463B69D31A022B01D9032367E05F
:10262000354B1B6803F00073002BF0D17B681B6AED
:10263000B3F5803F08D1304B5B6823F400327B68F0
:102640009B682D4913434B602B4B5B6823F474123A
:102650007B68196A7B685B6A0B43274913434B60AD
:10266000274B01221A60FFF7E7FA386108E0FFF70D
:10267000E3FA02463B69D31A022B01D9032337E060
:102680001D4B1B6803F00073002BF0D02FE01C4B98
:1026900000221A60FFF7D0FA386108E0FFF7CCFAA1
:1026A00002463B69D31A022B01D9032320E0124BC7
:1026B0001B6803F00073002BF0D118E07B68DB6926
:1026C000012B01D1012313E00B4B5B68FB60FB681E
:1026D00003F480327B681B6A9A4206D1FB6803F4DC
:1026E00070127B685B6A9A4201D0012300E00023EC
:1026F00018461837BD4680BD0010024000700040EB
:102700006000424280B584B000AF786039607B6879
:10271000002B01D10123D0E06A4B1B6803F00703B3
:102720003A689A4210D9674B1B6823F00702654943
:102730003B6813430B60634B1B6803F007033A6865
:102740009A4201D00123B8E07B681B6803F00203C2
:10275000002B20D07B681B6803F00403002B05D0FE
:10276000594B5B68584A43F4E06353607B681B68CD
:1027700003F00803002B05D0534B5B68524A43F427
:1027800060535360504B5B6823F0F0027B689B689A
:102790004D4913434B607B681B6803F00103002B1A
:1027A00040D07B685B68012B07D1474B1B6803F463
:1027B0000033002B15D101237FE07B685B68022B7F
:1027C00007D1414B1B6803F00073002B09D1012393
:1027D00073E03D4B1B6803F00203002B01D1012382
:1027E0006BE0394B5B6823F003027B685B6836491A
:1027F00013434B60FFF720FAF8600AE0FFF71CFA7A
:102800000246FB68D31A41F28832934201D903236E
:1028100053E02D4B5B6803F00C027B685B689B0008
:102820009A42EBD1274B1B6803F007033A689A42A0
:1028300010D2244B1B6823F0070222493B68134344
:102840000B60204B1B6803F007033A689A4201D0E3
:10285000012332E07B681B6803F00403002B08D0DF
:10286000194B5B6823F4E0627B68DB68164913430D
:102870004B607B681B6803F00803002B09D0124BE8
:102880005B6823F460527B681B69DB000E491343CD
:102890004B6000F021F802460B4B5B681B0903F00C
:1028A0000F030A49CB5C22FA03F3094A1360094B70
:1028B0001B681846FFF77EF9002318461037BD46FF
:1028C00080BD00BF0020024000100240985F000859
:1028D000000000200400002090B48AB000AF2A4B12
:1028E0003C1D0FCB84E80F0040F201233B80002306
:1028F000FB610023BB6100237B6200237B6100231B
:102900003B62224B5B68FB61FB6903F00C03042B09
:1029100002D0082B03D02DE01D4B3B622DE0FB695C
:102920009B0C03F00F0307F12802134413F8243C17
:102930007B61FB6903F48033002B13D0134B5B687E
:102940005B0C03F0010307F12802134413F8283C41
:10295000BB617B690E4A02FB03F2BB69B2FBF3F376
:102960007B6204E07B690B4A02FB03F37B627B6AB8
:102970003B6202E0064B3B6200BF3B6A18462837C9
:10298000BD4690BC704700BF785F00080010024051
:1029900000127A0000093D0080B485B000AF786075
:1029A0000A4B1B680A4AA2FB03235B0A7A6802FBF4
:1029B00003F3FB6000BFFB685A1EFA60002BF9D1DD
:1029C00000BF00BF1437BD4680BC70470000002028
:1029D000D34D621080B582B000AF78607B68002B69
:1029E00001D1012341E07B6893F83D30DBB2002B3D
:1029F00006D17B68002283F83C207868FEF782FFCE
:102A00007B68022283F83D207B681A687B68043368
:102A10001946104600F06AFA7B68012283F84620C6
:102A20007B68012283F83E207B68012283F83F20E7
:102A30007B68012283F840207B68012283F84120D3
:102A40007B68012283F842207B68012283F84320BF
:102A50007B68012283F844207B68012283F84520AB
:102A60007B68012283F83D20002318460837BD46C5
:102A700080BD000080B485B000AF78607B6893F8BB
:102A80003D30DBB2012B01D0012335E07B6802220F
:102A900083F83D207B681B68DA687B681B6842F01E
:102AA0000102DA607B681B68164A934209D07B6892
:102AB0001B68B3F1804F04D07B681B68124A9342B5
:102AC00011D17B681B689B6803F00703FB60FB6800
:102AD000062B10D07B681B681A687B681B6842F065
:102AE00001021A6007E07B681B681A687B681B6834
:102AF00042F001021A60002318461437BD4680BC1C
:102B0000704700BF002C01400004004080B582B037
:102B100000AF78607B681B681B6903F00203022B1F
:102B200022D17B681B68DB6803F00203022B1BD1F8
:102B30007B681B686FF002021A617B6801221A77BA
:102B40007B681B689B6903F00303002B03D0786844
:102B500000F0B1F905E0786800F0A4F9786800F0B9
:102B6000B3F97B6800221A777B681B681B6903F046
:102B70000403042B22D17B681B68DB6803F0040389
:102B8000042B1BD17B681B686FF004021A617B6801
:102B900002221A777B681B689B6903F44073002B41
:102BA00003D0786800F087F905E0786800F07AF9DA
:102BB000786800F089F97B6800221A777B681B68C7
:102BC0001B6903F00803082B22D17B681B68DB68B4
:102BD00003F00803082B1BD17B681B686FF0080209
:102BE0001A617B6804221A777B681B68DB6903F033
:102BF0000303002B03D0786800F05DF905E07868E6
:102C000000F050F9786800F05FF97B6800221A77CD
:102C10007B681B681B6903F01003102B22D17B68B3
:102C20001B68DB6803F01003102B1BD17B681B684B
:102C30006FF010021A617B6808221A777B681B68A4
:102C4000DB6903F44073002B03D0786800F033F99C
:102C500005E0786800F026F9786800F035F97B68BF
:102C600000221A777B681B681B6903F00103012BA4
:102C70000ED17B681B68DB6803F00103012B07D1D1
:102C80007B681B686FF001021A617868FEF7DEFD51
:102C90007B681B681B6903F08003802B0ED17B6867
:102CA0001B68DB6803F08003802B07D17B681B68FF
:102CB0006FF080021A61786800F067FA7B681B6821
:102CC0001B6903F04003402B0ED17B681B68DB6857
:102CD00003F04003402B07D17B681B686FF0400274
:102CE0001A61786800F0F9F87B681B681B6903F0CB
:102CF0002003202B0ED17B681B68DB6803F02003C8
:102D0000202B07D17B681B686FF020021A6178685E
:102D100000F032FA00BF0837BD4680BD80B584B0F0
:102D200000AF786039607B6893F83C30012B01D1AB
:102D30000223B3E07B68012283F83C207B680222F7
:102D400083F83D207B681B689B68FB60FB6823F071
:102D50007703FB60FB6823F47F43FB607B681B68A1
:102D6000FA689A603B681B68B3F5005F3ED0B3F524
:102D7000005F00F28780B3F5805F00F08580B3F5D7
:102D8000805F7FD8702B1AD0702B7BD8602B50D0EF
:102D9000602B77D8502B3CD0502B73D8402B58D079
:102DA000402B6FD8302B64D0302B6BD8202B60D0C9
:102DB000202B67D8002B5CD0102B5AD062E07B68A8
:102DC00018683B6899683B685A683B68DB6800F0A4
:102DD0005CF97B681B689B68FB60FB6843F07703CA
:102DE000FB607B681B68FA689A604EE07B68186835
:102DF0003B6899683B685A683B68DB6800F045F9B6
:102E00007B681B689A687B681B6842F480429A6002
:102E10003BE07B6818683B6859683B68DB681A468A
:102E200000F0BCF87B681B685021184600F013F9CD
:102E30002BE07B6818683B6859683B68DB681A467A
:102E400000F0DAF87B681B686021184600F003F98F
:102E50001BE07B6818683B6859683B68DB681A466A
:102E600000F09CF87B681B684021184600F0F3F8DE
:102E70000BE07B681A683B681B681946104600F037
:102E8000EAF802E000BF00E000BF7B68012283F89F
:102E90003D207B68002283F83C2000231846103731
:102EA000BD4680BD80B483B000AF786000BF0C37F2
:102EB000BD4680BC704780B483B000AF786000BF6F
:102EC0000C37BD4680BC704780B483B000AF7860DB
:102ED00000BF0C37BD4680BC704780B483B000AFE4
:102EE000786000BF0C37BD4680BC704780B485B0A9
:102EF00000AF786039607B681B68FB607B68254A9F
:102F0000934207D07B68B3F1804F03D07B68224A9D
:102F1000934208D1FB6823F07003FB603B685B6859
:102F2000FA681343FB607B681A4A934207D07B68B8
:102F3000B3F1804F03D07B68174A934208D1FB68F6
:102F400023F44073FB603B68DB68FA681343FB6063
:102F5000FB6823F080023B685B691343FB607B687E
:102F6000FA681A603B689A687B68DA623B681A689C
:102F70007B689A627B68074A934203D13B681A696F
:102F80007B681A637B6801225A6100BF1437BD4613
:102F900080BC7047002C01400004004080B487B022
:102FA00000AFF860B9607A60FB681B6A7B61FB6800
:102FB0001B6A23F00102FB681A62FB689B693B6194
:102FC0003B6923F0F0033B617B681B013A691343C3
:102FD0003B617B6923F00A037B617A69BB68134319
:102FE0007B61FB683A699A61FB687A691A6200BF83
:102FF0001C37BD4680BC704780B487B000AFF86016
:10300000B9607A60FB681B6A23F01002FB681A62E1
:10301000FB689B697B61FB681B6A3B617B6923F4EE
:1030200070437B617B681B037A6913437B613B6957
:1030300023F0A0033B61BB681B013A6913433B616A
:10304000FB687A699A61FB683A691A6200BF1C37AB
:10305000BD4680BC704780B485B000AF78603960F1
:103060007B689B68FB60FB6823F07003FB603A6839
:10307000FB68134343F00703FB607B68FA689A60C0
:1030800000BF1437BD4680BC704780B487B000AF26
:10309000F860B9607A603B60FB689B687B617B6924
:1030A00023F47F437B613B681A027B681A43BB6849
:1030B00013437A6913437B61FB687A699A6000BFA6
:1030C0001C37BD4680BC704780B485B000AF7860C7
:1030D00039607B6893F83C30012B01D1022341E039
:1030E0007B68012283F83C207B68022283F83D2024
:1030F0007B681B685B68FB607B681B689B68BB60C8
:10310000FB6823F07003FB603B681B68FA6813439D
:10311000FB607B681B68FA685A607B681B68144A0E
:10312000934209D07B681B68B3F1804F04D07B6861
:103130001B68104A93420CD1BB6823F08003BB602C
:103140003B685B68BA681343BB607B681B68BA68FE
:103150009A607B68012283F83D207B68002283F817
:103160003C20002318461437BD4680BC704700BF82
:10317000002C01400004004080B483B000AF7860B0
:1031800000BF0C37BD4680BC704780B483B000AF31
:10319000786000BF0C37BD4680BC7047014B186893
:1031A000704700BF0C00002070B500260C4D0D4C80
:1031B000641BA410A64209D102F0BCFE00260A4DF1
:1031C0000A4C641BA410A64205D170BD55F8043BFF
:1031D00098470136EEE755F8043B98470136F2E789
:1031E0008C6300088C6300088C63000890630008FF
:1031F00003460244934200D1704703F8011BF9E7EC
:10320000002B2DE9F0471F46BBBF03F100431F46CB
:1032100000232D2388B01446129A109D1370149B1E
:10322000DDF84CA023F02008B8F1460F05D0B8F126
:10323000450F00D10135022300E0032307AA0492C1
:1032400006AACDE902A2CDE9003522463B4600F0B0
:10325000E7FCB8F1470F064602D1119BDB0722D5E8
:10326000B8F1460F06EB050910D13378302B0AD19F
:103270000022002320463946FDF796FB18B9C5F118
:103280000105CAF80050DAF8003099440022002302
:1032900020463946FDF788FB08B1CDF81C90302256
:1032A000079B4B4507D33046079B159A9B1B136022
:1032B00008B0BDE8F087591C07911A70F0E7034683
:1032C000F7B5002903F8022BB6BF2D222B22494265
:1032D000092942702BDD0DF10704A4460A2791FB52
:1032E000F7F60A46A64607FB1615632A05F13005D0
:1032F000314604F1FF340EF8015CF0DC3031AEF100
:10330000020504F8011C2946441C61450AD30DF14D
:103310000902A2EB0E02654588BF00221344181A69
:1033200003B0F0BD11F8012B04F8012FEDE73023B5
:1033300030318370C170031DF1E700002DE9F04FBB
:1033400091B00C46DDF8688016461F46054601F030
:1033500055FA036818460993FCF7FAFE00230E930A
:10336000D8F800300A90073323F0070303F108026E
:1033700094F81890D4F800B0C8F80020D3E90023DE
:10338000C4E91223D4E9128A2AF000430B934FF0C8
:10339000FF3240469C4B0B99FDF738FB70BB4FF05A
:1033A000FF324046984B0B99FDF712FB30BB0022D1
:1033B000002340465146FDF701FB10B12D2384F850
:1033C0004330924B9248B9F1470F94BF98468046DC
:1033D00003234FF0000A23612BF0040323603346DC
:1033E0002146284600970FAA00F0D4F9013040F09A
:1033F00090804FF0FF3011B0BDE8F08F4246534649
:1034000040465146FDF702FB48B1BAF1000FB8BF84
:103410002D238048B8BF84F843307F4BD3E76368DF
:1034200009F0DF015A1C42D1062363600022069294
:103430000EAACDE904920DAA4BF4806303920DF11C
:103440003302CDE901322360636842460093284687
:1034500053460B91FFF7D4FE0B99804647290D99EF
:1034600008D1C81C02DB6368994240DDA9F102095A
:103470005FFA89F9B9F1650F1FD84A46013904F19D
:1034800050000D91FFF71BFF0E9A82461318012A78
:10349000236102DC2268D20701D5013323619DF844
:1034A0003330002B9BD02D2384F8433097E74729F6
:1034B000BCD1002BBAD10123B7E7B9F1660F18D1FF
:1034C000002963680BDD216113B92268D00702D59A
:1034D00001330B4423614FF0000AA165DFE713B904
:1034E0002268D20701D50233F4E70123F2E74FF057
:1034F00067090E9B994205DB23682161D807EAD54D
:103500004B1CE7E70029CCBF0122C1F102021344A2
:10351000E0E723685A0507D4236942463146284626
:10352000B84701302BD164E7B9F1650F40F2DD8077
:10353000D4E9120100220023FDF736FA002833D027
:10354000012331462846354AB84701303FF451AF90
:10355000DDE90D239A4202DB2368D8070FD5DDE9A8
:10356000092331462846B84701303FF442AF4FF0B7
:10357000000804F11A090E9B013B434509DC23684E
:103580009B0700F10281E0680F9B9842B8BF184684
:1035900031E701234A4631462846B84701303FF417
:1035A00028AF08F10108E6E70D9B002B38DC01236A
:1035B00031462846194AB84701303FF41AAFDDE9D1
:1035C0000D23134302D12368D907D8D5DDE9092398
:1035D00031462846B84701303FF40BAF4FF00009A1
:1035E00004F11A0A0D9B5B424B4501DC0E9B94E7EC
:1035F0000123524631462846B84701303FF4F9AE20
:1036000009F10109EEE700BFFFFFEF7FAC5F0008A3
:10361000B05F0008B85F0008B45F0008BC5F000836
:103620000E9AA36D9A42A8BF1A46002A914637DC2B
:103630004FF0000B29EAE97904F11A02D4F858A0F6
:10364000AAEB09035B4533DCDDE90D239A423BDB42
:103650002368DA0738D40E9A0D99A2EB0A03A2EB7D
:1036600001099945A8BF9946B9F1000F34DC4FF024
:10367000000829EAE97904F11A0ADDE90D239B1A09
:10368000A3EB090343457FF77AAF01235246314646
:103690002846B84701303FF4ACAE08F10108ECE72A
:1036A0001346314642462846B8470130C0D1A0E60D
:1036B0000123314628460B92B84701303FF499AEBA
:1036C0000B9A0BF1010BB9E73146DDE909232846D6
:1036D000B8470130BFD18CE64B463146284608EB4F
:1036E0000A02B8470130C2D183E60E9A012A01DCF2
:1036F000DB0737D50123424631462846B84701301B
:103700003FF477AEDDE9092331462846B84701305A
:103710003FF46FAED4E9120100220023FDF744F913
:10372000D8B90E9B08F10102013B31462846B84743
:1037300001300ED15DE601234A4631462846B8479E
:1037400001303FF456AE08F101080E9B013B4345A2
:10375000F1DC534604F15002E0E64FF0000804F1BA
:103760001A09F2E701234246DFE701234A463146C0
:103770002846B84701303FF43CAE08F10108E36841
:103780000F995B1A4345F0DCFDE64FF0000804F1A9
:103790001909F4E72DE9F047164699468A680B693E
:1037A00007469342B8BF1346336091F843200C4656
:1037B000DDF820800AB1013333602368990642BFE7
:1037C000336802333360256815F0060506D104F12D
:1037D000190AE36832689B1AAB4228DC94F843204C
:1037E000131E226818BF012392062DD4494638467D
:1037F00004F14302C047013020D02368E56803F09C
:103800000603042B18BF002532684FF00006A3689A
:1038100008BFAD1A226908BF25EAE5759342C4BF07
:103820009B1AED181A34B5421AD1002008E0012382
:10383000524649463846C047013003D14FF0FF3069
:10384000BDE8F0870135C4E73020E11881F8430076
:103850005A1C94F845102244023382F84310C5E7FD
:103860000123224649463846C0470130E6D001369A
:10387000D9E700002DE9FF470C46277E9146782FB7
:1038800080469A460C9904F1430207D8622F0AD861
:10389000002F00F0D980582F00F0A48004F14206D8
:1038A00084F842703AE0A7F16303152BF6D801A023
:1038B00050F823F00D390008213900089D38000820
:1038C0009D3800089D3800089D38000821390008FF
:1038D0009D3800089D3800089D3800089D38000874
:1038E0002F3A000851390008113A00089D380008A5
:1038F0009D380008513A00089D38000851390008E9
:103900009D3800089D380008193A00080B6804F13A
:1039100042061A1D1B680A6084F842300123A4E0A5
:10392000256808682E0600F104030AD505680B60B7
:10393000002D03DA2D236D4284F843300A235E48BC
:1039400019E015F0400F05680B6018BF2DB2EFE7C6
:103950000B682568181D0860280601D51D6802E05F
:103960006906FBD51D886F2F0CBF08230A23524818
:10397000002184F843106668002EA8BF2168A66065
:10398000A4BF21F0040121600DB9002E4DD01646D0
:10399000B5FBF3F103FB1157C75D06F8017D2F4618
:1039A000BB420D46F4D9082B0BD12368DF0708D59D
:1039B000236961689942DEBF302306F8013C06F1B5
:1039C000FF36921B22614B4621464046CDF800A0AF
:1039D00003AAFFF7DFFE01304CD14FF0FF3004B0F7
:1039E000BDE8F087344884F845700E68236856F8BF
:1039F000045B1F060E6014D5D90744BF43F02003B3
:103A000023601DB9236823F0200323601023AFE750
:103A1000236843F0200323607823284884F8453046
:103A2000E3E75E0648BFADB2E6E71646BBE70B68C4
:103A300026681D1D60690D6035061B6801D518607C
:103A400002E07106FBD51880002316462361BAE711
:103A50000B681A1D0A601E6800213046626800F07B
:103A6000D9FE08B1801B606063682361002384F87D
:103A70004330A8E73246494640462369D0470130E3
:103A8000ABD023689B0713D4E068039B9842B8BF70
:103A90001846A4E70123324649464046D047013044
:103AA0009BD00135E36803995B1AAB42F2DCEBE78C
:103AB000002504F11906F5E7BE5F0008CF5F000896
:103AC0000EB46FF0004100B59CB01DAB02900690A3
:103AD000079104910848094953F8042B059100689F
:103AE00002A9019301F044FB0022029B1A701CB052
:103AF0005DF804EB03B070470C0000200802FFFFE4
:103B00002DE9F74F03690C690746A342C0F2838091
:103B1000013C00F1140501F1140805EB8403019345
:103B200058F8243055F8242001339A42B2FBF3F6BA
:103B30004FEA840B08EB840932D34FF0000E404665
:103B4000AC46F24650F8042B93B206FB03E3120C8A
:103B50004FEA134E06FB02E29BB2AAEB0303DCF82A
:103B600000A04FEA124E1FFA8AFA53441FFA82FA53
:103B7000DCF800208145CAEB124202EB23429BB2E3
:103B800043EA02434FEA224A4CF8043BDAD255F8A2
:103B90000B302BB9019B043B9D421A462FD33C614D
:103BA000384601F0CDF8002825DB28464FF0000C00
:103BB000013658F8041BD0F800E08BB2ACEB0303DD
:103BC0001FFA8EF213440A0CC2EB1E4202EB234290
:103BD0009BB243EA0243C1454FEA224C40F8043B02
:103BE000E7D255F8242005EB840322B9043B9D421B
:103BF0001A460AD33C61304603B0BDE8F08F126824
:103C0000043B002ACBD1013CC6E71268043B002AE2
:103C1000F0D1013CEBE70020EEE7000000000000DF
:103C20002DE9F04F16461F46446A99B00546CDE986
:103C30000467DDF8948074B9102000F0E3FD0246BB
:103C4000686220B9EA21AE4BAE4801F0A1FBC0E9A1
:103C500001440460C4606B6A196851B15A68012359
:103C600093404A608B60284600F030FE00226B6A69
:103C70001A603B1EAFBF0023012223F000430593CF
:103C8000A8BFC8F80030DDF814909F4BB8BFC8F843
:103C9000002033EA090319D142F20F73249A13600A
:103CA000C9F31303334300F08085269B53B9974B28
:103CB00022E0974B08930833269A1360089819B0AE
:103CC000BDE8F08F914B08930333F5E7DDE9043449
:103CD000CDE90C34DDE90C0100220023FCF764FE81
:103CE000804658B10123249A1360269B002B00F0D4
:103CF000598588481860431E0893DFE716AB019387
:103D000017AB00932846DDE90C2301F0C5F8C9F391
:103D10000A548246002C7ED0DDE90C010D9BA4F2F2
:103D2000FF34C3F3130343F07F5141F44011CDF846
:103D30004C800022784BFCF717FA6BA3D3E90023E1
:103D4000FCF7CAFB6AA3D3E90023FCF70FFA064687
:103D500020460F46FCF756FB67A3D3E90023FCF788
:103D6000BBFB02460B4630463946FCF7FFF90646D8
:103D70000F46FCF761FE002281460023304639469B
:103D8000FCF71CFE48B14846FCF73CFB32463B467C
:103D9000FCF70AFE08B909F1FF39B9F1160F57D837
:103DA000DDE90C015D4B03EBC903D3E90023FCF70C
:103DB00005FE00284ED0002309F1FF390F93169B12
:103DC0001C1B631E099349BFC4F101030023069322
:103DD000002354BF06930993B9F1000F3CDB099B04
:103DE000CDF838904B44099300230A93229B092B6A
:103DF0006CD8052BC4BF043B2293229BC8BF002470
:103E0000A3F10203D8BF0124032B00F28B80DFE86B
:103E100003F02D4F4D5BDDE916431C4404F23243A1
:103E2000202BC3BFC3F1400304F2124009FA03F38D
:103E3000C3F12003C6BF26FA00F0184306FA03F0C8
:103E4000FCF7D0FA0123A1F1F871013C139370E75C
:103E50000123B3E70F90B2E7069BA3EB0903069398
:103E6000C9F100030A9300230E93BFE700230B93CD
:103E7000239B002B59DC4FF0010B5B46CDF808B0BB
:103E8000CDF88CB00022686A4260042202F1140668
:103E90009E4241684FD9284600F0D8FC089000287F
:103EA0004DD102464FF4D5711D4BCDE60123DEE71F
:103EB00000230B93239B09EB030B0BF10103012B55
:103EC0000293B8BF0123DDE70123F2E701240023B9
:103ED0000B9422934FF0FF3B00221223CDF808B041
:103EE0002392CFE7AFF3008061436F63A787D23F90
:103EF000B3C8608B288AC63FFB799F501344D33FD9
:103F0000ED5F0008046000080000F07FE95F000832
:103F1000E05F0008BD5F00080000F83F0061000896
:103F20006360000801230B93D4E7DDF88CB05B4697
:103F3000CDF808B0A6E7013141605200A6E76B6AF0
:103F4000089A1A60029B0E2B00F2A880002C00F049
:103F5000A580B9F1000F34DD9A4A09F00F0302EB96
:103F6000C30319F4807FD3E90034CDE910344FEA5C
:103F7000291416D0DDE90C01934B0327D3E908235C
:103F8000FCF7D4FBCDE9040104F00F048E4E54B9C4
:103F9000DDE91023DDE90401FCF7C8FBCDE90401EC
:103FA00029E00227F2E7E10708D5DDE91001D6E9AB
:103FB0000023FCF791FACDE91001013764100836AF
:103FC000E5E700F0A580DDE90C01C9F100047D4BB7
:103FD00004F00F0203EBC203D3E90023FCF77CFAE1
:103FE00002270023CDE90401774E2411002C40F074
:103FF0008480002BD2D10F9B002B00F08B80DDE959
:104000000434CDE91034DDE9100100226F4BFCF7D8
:10401000D5FC00287ED0029B002B7BD0BBF1000F8B
:1040200038DDDDE910010022694BFCF755FA5C46EA
:10403000CDE9040109F1FF3801373846FCF7E2F910
:10404000DDE90423FCF748FA0022624BFCF78EF806
:10405000A1F15076CDE910011196002C5DD1DDE97A
:10406000040100225C4BFCF77FF802460B46CDE9C9
:1040700004233346109AFCF7BFFC002840F09E82D0
:10408000DDE90401109A06F10043FCF797FC0028D3
:1040900040F09282DDE90C34CDE90434179B002B0B
:1040A000C0F25381B9F10E0F00F34F81454B03EB82
:1040B000C903D3E90034CDE90634239B002B80F2F9
:1040C000DB80029B002B00F3D78040F07482DDE997
:1040D00006010022404BFCF7FFF9DDE90423FCF761
:1040E00081FC029C2646002840F04A823123089F2A
:1040F00009F1010907F8013B46E2E20705D5D6E9D7
:104100000023FCF7E9F901230137641008366DE755
:10411000022770E7C846029C8FE70899294B214483
:1041200012910B9903EBC403DDE9106753E90223F5
:10413000002955D000202949FCF7F8FA3B463246C1
:10414000FCF712F8CDE91001089FDDE90401FCF746
:1041500073FC0446FCF756F902460B46DDE9040100
:10416000FCF702F802460B463034CDE90423DDE9C2
:10417000102307F8014BFCF721FC002874D1DDE97E
:10418000042300201149FBF7EFFFDDE91023FCF7C2
:1041900015FC002840F0B680129B9F423FF47AAF96
:1041A000DDE9100100220A4BFCF796F90022CDE967
:1041B0001001DDE90401064BFCF78EF9CDE904019D
:1041C000C3E700BF00610008D86000080000F03FAE
:1041D0000000244000001C40000014400000E03FAC
:1041E00030463946FCF778F9129BCDE91001089C5E
:1041F0001493DDE90401FCF71FFC1590FCF702F9AC
:1042000002460B46DDE90401FBF7AEFF159B0646AF
:10421000303304F8013B129B0F469C424FF00002E2
:1042200024D1DDE91001B34BFBF7A0FF02460B469A
:1042300030463946FCF7E0FB002862D1DDE9102367
:104240000020AC49FBF790FF02460B46304639464A
:10425000FCF7B4FB00283FF41DAF149F7B1E1493A2
:1042600017F8013C302BF8D0C1463AE0A24BFCF7DE
:1042700033F9CDE90401BCE7089FDDE90623DDE958
:104280000401FCF753FAFCF7D7FB0446FCF7BAF835
:10429000DDE90623FCF720F904F130060B4602465F
:1042A000DDE90401FBF760FF07F8016B089E029B44
:1042B000BE1BB3423AD102460B46FBF757FF0246FC
:1042C0000B46CDE90223DDE90623FCF795FB58BB3D
:1042D000DDE90623DDE90201FCF766FB08B1E10731
:1042E00022D42846514600F0F1FA00233B70249B6B
:1042F00009F101001860269B002B3FF4DFAC1F6022
:10430000DCE427463B461F4613F8012D392A07D126
:10431000089A9A42F7D13022089908F101080A70E8
:104320001A7801321A709FE7C846EBE70022724BF9
:10433000FCF7D2F802460B46CDE904230022002305
:10434000FCF732FB002898D0CBE70B9A002A00F04C
:10435000CD80229A012A00F3AF80139A002A00F040
:10436000A78003F233430A9C069F069A01211A4450
:104370000692099A28461A44099200F061FB064603
:10438000002F0CDD099B002B09DDBB42A8BF3B467B
:10439000069AFF1AD21A0692099AD31A09930A9B0F
:1043A000F3B10B9B002B00F0A980002C10DD3146EF
:1043B0002246284600F0FEFB5246014606462846A5
:1043C00000F054FB80465146284600F07FFAC24672
:1043D0000A9B1A1B04D05146284600F0EBFB82468C
:1043E0000121284600F02CFB0E9B0446002B40F3D5
:1043F00087801A460146284600F0DCFB229B0446D3
:10440000012B40F380804FF00008236904EB830305
:10441000186900F0C7FAC0F12000099B184410F099
:104420001F0000F09280C0F12003042B40F38A802B
:10443000C0F11C00069B074403440693099B0344F8
:104440000993069B002B05DD51461A46284600F0CD
:104450000BFC8246099B002B05DD21461A462846A7
:1044600000F002FC04460F9B002B70D02146504602
:1044700000F066FC00286ADA002351460A2228462A
:1044800000F046FA0B9B824609F1FF39002B00F041
:104490009381314600230A22284600F039FABBF105
:1044A000000F064600F39380229B022B57DC8EE020
:1044B000169BC3F1360356E7029B5C1E0A9BA34280
:1044C000B7BF0A9B1C1BE21A0E9BBEBF0A949B1827
:1044D0000E93029BB8BF0024002BBBBF069B029A21
:1044E000069F9F1AACBF029B00233EE70A9C069FD3
:1044F0000B9E45E70000E03F000024400A9A6AE76F
:10450000229B012B19DC049BBBB9059BC3F313034E
:104510009BB9059B23F000431B0D1B0583B14FF096
:104520000108069B01330693099B013309930E9BF7
:10453000002B7FF46AAF01206FE74FF00008F6E729
:104540009846F4E73FF47DAF18461C3072E7029BB3
:10455000002B36DC229B022B33DDDDF808B0BBF1EB
:10456000000F0DD121465B460522284600F0D0F908
:1045700001460446504600F0E3FB00283FF7B6AD85
:10458000239B089F6FEA03094FF000082146284645
:1045900000F09CF9002E3FF4A4AEB8F1000F05D056
:1045A000B04503D04146284600F090F931462846F0
:1045B00000F08CF995E600242646E1E7C146264640
:1045C00094E50B9BDDF808B0002B00F0FC80002F79
:1045D00005DD31463A46284600F046FB0646B8F16E
:1045E000000F5CD02846716800F030F9074628B902
:1045F000024640F2EA217E4BFFF726BB326906F104
:104600000C01023292000C3000F012F901223946FE
:10461000284600F029FBB0460646089B013302936A
:10462000089B5B440A93049B03F001030993029BDC
:104630002146504603F1FF3BFFF762FA034641462D
:104640003033049050460B9300F07AFB32460690CC
:104650002146284600F090FBC26807460B9B02BB30
:104660000146504600F06CFB02460B9B394628463B
:10467000CDE90B3200F02AF9229B0C9A029F43EA03
:104680000201099B0B430B9B0DD1392B27D0069AB6
:10469000002A01DD049B31338BF8003076E7304689
:1046A000B9E70122E2E70699002904DB22980143D9
:1046B0000998014320D1002AEEDD51460122284607
:1046C000029300F0D1FA2146824600F039FB00281F
:1046D000029B02DCE0D1DA07DED5392BDAD13923AF
:1046E0008BF800303B461F4617F8012C013B392A56
:1046F00050D001321A7049E7002A03DD392BEED081
:104700000133C9E7029A0A9902F8013C8A422AD089
:10471000514600230A22284600F0FAF8B0458246A6
:104720004FF000034FF00A024146284607D100F03F
:10473000EFF880460646029B0133029377E700F0CC
:10474000E7F83146804600230A22284600F0E0F8C8
:104750000646F0E7BBF1000FCCBF5F4601274FF0E4
:104760000008089A1744514601222846029300F097
:104770007BFA2146824600F0E3FA0028B2DC02D13F
:10478000029BDB07AED43B461F4613F8012D302AAF
:10479000FAD0FBE6089A9A42A5D1312309F1010922
:1047A0001370F3E6134BFFF7A7BA269B002B7FF499
:1047B00080AA114BFFF7A0BABBF1000F03DC229BCC
:1047C000022B3FF7CCAE089F21465046FFF798F9E1
:1047D000089A00F1300307F8013BBA1A9345B9DD96
:1047E000514600230A22284600F092F88246EBE761
:1047F00063600008BC5F0008E05F00080048704785
:1048000060010020024B0146186800F0FBBB00BFAE
:104810000C000020034610B5C9B20244934218466A
:1048200001D1002003E0047801338C42F6D110BDA1
:104830000A44914200F1FF3300D1704710B511F8DE
:10484000014B914203F8014FF9D110BD70B5466A92
:1048500004460D4676B91020FFF7D4FF0246606289
:1048600020B96621174B184800F092FDC0E9016697
:104870000660C660666AF36883B1636ADB6853F8F2
:104880002500B8B9012101FA05F6721D20469200F3
:1048900000F05EFB60B1C0E901560EE02122042168
:1048A000204600F055FB636AF060DB68002BE4D122
:1048B000002070BD026843F825200023C0E90333BF
:1048C000F7E700BFED5F00087460000870B5466A46
:1048D00005460C4676B91020FFF794FF0246686241
:1048E00020B98A21084B094800F052FDC0E9016651
:1048F0000660C6603CB16B6A6268DB6853F82210E0
:10490000216043F8224070BDED5F0008746000082C
:104910002DE9F04198460C4600230E69074601F147
:10492000140005680133A9B202FB01812D0C4FEA86
:10493000114C02FB05C589B201EB05419E424FEACD
:10494000154840F8041BECDCB8F1000F22D0A36836
:10495000B34219DC616838460131FFF777FF05463D
:1049600028B90246B5210D4B0D4800F011FD226912
:1049700004F10C01023292000C30FFF759FF21467E
:104980003846FFF7A3FF2C4604EB86030136C3F835
:10499000148026612046BDE8F08100BF63600008F6
:1049A00074600008020C12040346CAB90304102004
:1049B00013F07F4F04BF1B02083013F0704F04BF89
:1049C0001B01043013F0404F04BF9B000230002B4A
:1049D00005DB13F0804F00F1010008BF2020704775
:1049E0000020E5E70368024613F007000BD0D90763
:1049F00022D4980749BF5B089B08012013605CBF65
:104A000002201360704799B209B910201B0C13F0F3
:104A1000FF0F04BF1B0A0830190704BF1B0904302D
:104A2000990704BF9B080230D90703D45B0800F143
:104A3000010003D0136070470020704720207047AA
:104A400010B50C460121FFF701FF024628B94FF4CB
:104A5000A071044B044800F09BFC012344610361F6
:104A600010BD00BF63600008746000082DE9F04FBE
:104A700014460A6923690D469A42BEBF0B46254675
:104A80001C46D5F810A0D4F81090AB6869680AEB02
:104A90000907BB4285B0B8BF0131FFF7D7FE30B977
:104AA000024640F25D11414B414800F071FC00F1BB
:104AB00014063346002206EB870843451ED305F152
:104AC000140C04F114030CEB8A0C03EB8902029220
:104AD000ACEB0502153A22F00302043205F1150190
:104AE0008C4538BF04220192029A03939A4208D857
:104AF000002F55DC076105B0BDE8F08F43F8042BAB
:104B0000DBE7B3F800A0BAF1000F20D0B1460022D5
:104B100005F1140E5EF8044BD9F800B0A1B21FFAEB
:104B20008BFB0AFB01B11144D9F80020240C120CB4
:104B30000AFB042404EB114489B241EA0441F44520
:104B40004FEA144249F8041BE4D801997250039AC1
:104B50000433B2F80290B9F1000F1FD0B6464FF0FF
:104B6000000A346805F114010A88BEF802B0A4B244
:104B700009FB02B2924444EA0A444EF8044B51F84D
:104B8000044BBEF80020240C09FB04248C4504EBE4
:104B90001A444FEA144AE7D8019AB4500436A3E7FE
:104BA00058F8043D002BA5D1013FA1E76360000840
:104BB000746000082DE9F843154612F0030206461A
:104BC0000F4607D0254C013A002354F82220FFF766
:104BD0009FFE0746AD103DD0746A7CB91020FFF7E8
:104BE00011FE0246706228B94FF4D7711C4B1D4864
:104BF00000F0CEFBC0E901440460C460D6F8248014
:104C0000D8F808404CB940F271213046FFF718FF40
:104C100000230446C8F8080003604FF00009EB07C2
:104C20000AD5394622463046FFF720FF80463946EE
:104C30003046FFF74BFE47466D100BD0206838B961
:104C4000224621463046FFF711FF2060C0F8009051
:104C50000446E4E73846BDE8F88300BFC8610008B1
:104C6000ED5F0008746000082DE9F0470C46074628
:104C700091462369496803EB6218A3684FEA621AF8
:104C800008F10106B3420BDB3846FFF7DFFD0546AE
:104C900048B9024640F2D911274B284800F078FB6A
:104CA00001315B00EEE7002300F1140100F1100276
:104CB0001846534533DB20692AEAEA7A04F11403E3
:104CC00019F01F0901EB8A0103EB800C2BD08A46F7
:104CD0000022C9F1200E186800FA09F002434AF8D0
:104CE000042B53F8042B9C4522FA0EF2F3D8ACEBBC
:104CF0000403153B23F00303043304F1150084453A
:104D000038BF0423CA500AB108F10206013E3846F2
:104D100021462E61FFF7DAFD2846BDE8F08742F80C
:104D2000040F0133C5E7043953F8042B9C4541F8BF
:104D3000042FF9D8EAE700BF636000087460000838
:104D400003460A69006930B5801A0DD11433143155
:104D500003EB820401EB820154F8045D51F8042D49
:104D6000954202D004D3012030BDA342F4D3FBE727
:104D70004FF0FF30F8E700002DE9F84F0C460646EB
:104D8000114620469246FFF7DBFF051E11D129464A
:104D90003046FFF75BFD024628B940F232213C4B1A
:104DA0003C4800F0F5FA0123C0E904351046BDE89F
:104DB000F88FA4BF5346A2463046DAF80410A6BFC7
:104DC0001C4600250125FFF741FD024618B94FF4A6
:104DD00010712F4BE4E700F11408DAF81070C56089
:104DE0004FF0000C0AF114050AF11000C2462669C2
:104DF00004F1140905EB870E09EB860650F804BF91
:104E000059F8043B1FFA8BF161441FFA83FC1B0C19
:104E1000A1EB0C01C3EB1B4303EB214389B24FEA27
:104E2000234C4E4541EA03434AF8043BE6D8331B82
:104E3000153B23F0030315340433A64238BF042383
:104E40001D4443441E462C4674450ED30EF1030107
:104E5000491B21F00301033DAE4538BF0021194431
:104E600051F8043D8BB11761A0E754F8048B1FFA89
:104E700088F16144081400EB184089B241EA00410E
:104E80004FEA204C46F8041BDEE7013FE8E700BF8D
:104E900063600008746000082DE9F3410121DDE939
:104EA000087690461D46FFF7D1FC044630B902460D
:104EB00040F20A31244B254800F06AFAC5F3130387
:104EC000C5F30A552DBB0193B8F1000326D06846FF
:104ED0000093FFF787FD0099F0B1019AC0F120031C
:104EE00002FA03F30B43C24063610192019B002B62
:104EF00014BF02210121A3612161C5B1A5F233458F
:104F00000544C0F135003D603060204602B0BDE888
:104F1000F08143F48013D6E76161E7E701A8FFF76A
:104F200061FD0121019B216163612030E5E704EB14
:104F30008103A0F2324038601869FFF733FDC0EBFF
:104F400041113160E1E700BF636000087460000850
:104F500038B502FB01F5294600F054F8044618B1B3
:104F60002A460021FEF744F9204638BD38B50546EB
:104F7000002943D051F8043C0C1F002BB8BFE418A3
:104F800000F062FA1E4A1368104633B96360146079
:104F90002846BDE8384000F05DBAA3420AD921682E
:104FA0006218934201BF1A685B68521822606360FE
:104FB0000460EDE71A465B680BB1A342FAD91168A9
:104FC0005018A0420BD12068014450188342116050
:104FD000DED118685B68014411605360D8E702D9DC
:104FE0000C232B60D4E7206821188B4201BF19687D
:104FF0005B680918216063605460C9E738BD00BF71
:1050000034020020F8B5CD1C25F0030508350C2D21
:1050100038BF0C25002D064601DBA94203D90C231D
:1050200033600020F8BD00F00FFA21490A681446E9
:105030009CB9204F3B6823B92146304600F098F9CF
:1050400038602946304600F093F9431C23D10C23E5
:105050003046336000F0FEF9E3E723685B1B17D4AA
:105060000B2B03D923601C44256004E06368A24233
:105070000CBF0B605360304600F0ECF904F10B00FC
:10508000231D20F00700C21ACCD01B1AA350C9E779
:1050900022466468CCE7C41C24F00304A042E3D099
:1050A000211A304600F064F90130DDD1CFE700BFAE
:1050B00034020020380200202DE9F0478E68824635
:1050C0009E420C4690461F4638D88A8912F4906F4B
:1050D00032D0256809690133A5EB010965694B44A4
:1050E00005EB450505EBD5756D109D4238BF1D4696
:1050F000530531D52946FFF785FF064650B90C23E5
:105100004FF0FF30CAF80030A38943F04003A38179
:10511000BDE8F0874A462169FFF78AFBA38923F49B
:10512000906343F08003A38126614E4426603E468F
:105130006561A5EB0905A560BE4200D93E46324631
:105140004146206800F066F9A36822689B1B324440
:105150000020A3602260DBE72A4600F081F90646C2
:105160000028E1D150462169FFF700FFC7E70000A2
:105170002DE9F04F98468B8907461B060D461446CD
:105180009DB00ED50B6963B94021FFF73BFF286046
:10519000286120B90C233B604FF0FF30D1E0402361
:1051A0006B610023099320238DF8293030234FF0C1
:1051B0000109CDF80C80DFF8A4818DF82A30234650
:1051C0009A4613F8012B0AB1252AF9D1BAEB040B40
:1051D0000BD05B46224629463846FFF76DFF01306B
:1051E00000F0AA80099A5A4409929AF80030002BDC
:1051F00000F0A28000234FF0FF32CDE905230AF131
:10520000010A049307938DF853301A9354460522EC
:1052100014F8011B5148FFF7FDFA049AD8B9D006DB
:1052200044BF20238DF85330110744BF2B238DF842
:1052300053309AF800302A2B15D0544600204FF0F6
:105240000A0C079A214611F8013B303B092B4ED935
:10525000B0B1079214E0A0EB080309FA03F313437B
:10526000A2460493D2E7039B191D1B680391002BF0
:10527000BBBF5B4242F0020207930793B8BF0492A0
:1052800023782E2B0CD163782A2B35D1039B023443
:105290001A1D1B680392002BB8BF4FF0FF33059314
:1052A000DFF8C8A0032250462178FFF7B3FA40B1D7
:1052B0004023A0EB0A0003FA00F0049B01340343EF
:1052C000049314F8011B062225488DF82810FFF7D7
:1052D000A1FA002838D0234B1BBB039B073323F0D4
:1052E000070308330393099B3344099367E70C468C
:1052F00001200CFB0232A5E700234FF00A0C1946EF
:1053000001340593204610F8012B303A092A03D9BD
:10531000002BC5D00591C3E7044601230CFB0121F6
:10532000F0E703AB00932A4638460F4B04A9FEF77B
:1053300005F8421C0646D6D1AB895B063FF52CAF7B
:1053400009981DB0BDE8F08F03AB00932A4638469C
:10535000054B04A9FEF78EFAEBE700BFD461000805
:10536000DE6100083D330008B9500008DA6100082A
:1053700038B50023054D044608462B60FCF7A2FB18
:10538000431C02D12B6803B1236038BDCC0200203E
:105390001FB514461A46094B05461B68D8684CB120
:1053A000074BCDE9013400912B46064900F00EF879
:1053B00000F0A2FA044B1C46F3E700BF0C000020EB
:1053C000E5610008F2610008206200080EB403B530
:1053D000014603AB054853F8042B0068019300F025
:1053E0008DF802B05DF804EB03B070470C000020AC
:1053F00082B001B901A942B14BB113780B601278A8
:10540000101E18BF012002B070471046FBE76FF076
:105410000100F8E7884210B501EB020402D984428A
:10542000234607D8431EA14208D011F8012B03F8E8
:10543000012FF8E7014602448A4200D110BD13F85B
:10544000014D02F8014DF7E7014800F015BC00BF1F
:10545000D4020020014800F010BC00BFD40200209C
:10546000F8B5074614460E4621B91146BDE8F84086
:10547000FFF7C8BD22B9FFF779FD25462846F8BDDC
:1054800000F060FCA0420FD221463846FFF7BAFD7B
:1054900005460028F2D031462246FFF7C9F93146C9
:1054A0003846FFF763FDE9E73546E7E7936810B450
:1054B000013B002B936007DA9469A34201DB0A29C0
:1054C00002D110BC00F04AB91368581C1060197062
:1054D000084610BC7047F8B506460F461446D51866
:1054E000AC4201D1002007E03A46304614F8011BD7
:1054F000FFF7DCFF431CF3D1F8BD00002DE9F04FAE
:105500000D461446984606469DB018B183690BB9FE
:1055100000F014FB894B9D421BD175686B6ED90757
:1055200005D4AB899A0502D4A86D00F0A5FBAB8920
:105530001B0701D52B69EBB92946304600F06EF9FF
:10554000C0B16B6EDC070ED54FF0FF301DB0BDE86B
:10555000F08F7B4B9D4201D1B568DFE7794B9D42CF
:1055600008BFF568DAE7AB899805EDD4A86D00F0BF
:1055700084FBE9E70023099320238DF829303023A9
:105580004FF00109CDF80C80DFF8BC818DF82A308E
:1055900023469A4613F8012B0AB1252AF9D1BAEB12
:1055A000040B0BD05B46224629463046FFF793FF9B
:1055B000013000F0AA80099A5A4409929AF8003002
:1055C000002B00F0A28000234FF0FF32CDE905232D
:1055D0000AF1010A049307938DF853301A93544645
:1055E000052214F8011B5848FFF714F9049AD8B99A
:1055F000D10644BF20238DF85330130744BF2B231B
:105600008DF853309AF800302A2B15D054460020DC
:105610004FF00A0C079A214611F8013B303B092B49
:105620004ED9B0B1079214E0A0EB080309FA03F3D6
:105630001343A2460493D2E7039B191D1B680391F1
:10564000002BBBBF5B4242F0020207930793B8BF37
:10565000049223782E2B0CD163782A2B35D1039B0F
:1056600002341A1D1B680392002BB8BF4FF0FF33A2
:105670000593DFF8E4A0032250462178FFF7CAF82B
:1056800040B14023A0EB0A0003FA00F0049B013470
:105690000343049314F8011B06222C488DF82810AC
:1056A000FFF7B8F800283FD0294B1BBB039B0733FB
:1056B00023F0070308330393099B3B44099367E7EF
:1056C0000C4601200CFB0232A5E700234FF00A0C28
:1056D000194601340593204610F8012B303A092A67
:1056E00003D9002BC5D00591C3E7044601230CFB69
:1056F0000121F0E703AB00932A463046154B04A97D
:10570000FDF71CFE0746781CD6D16B6ED90705D471
:10571000AB899A0502D4A86D00F0AFFAAB895B069D
:105720003FF512AF099811E703AB00932A463046C4
:10573000084B04A9FEF79EF8E4E700BF4C6300089D
:105740006C6300082C630008D4610008DE61000867
:105750003D330008D7540008DA610008F8B50E465A
:105760001446054618B183690BB900F0E7F9214BDF
:105770009C422BD16C68A369A360A3891A072FD51B
:1057800023696BB323692068F6B2C01A6369374690
:10579000834204DC2146284600F03CF930BBA36874
:1057A0000130013BA36023685A1C22601E706369AC
:1057B000834204D0A389DB0706D50A2E04D12146F3
:1057C000284600F027F988B93846F8BD0A4B9C42B4
:1057D00001D1AC68CFE7094B9C4208BFEC68CAE72F
:1057E0002146284600F01AF80028CBD04FF0FF37AA
:1057F000EAE700BF4C6300086C6300082C630008F4
:105800000346084641B1FF2A04D98A224FF0FF30EF
:105810001A60704701200A7070470000324B70B563
:105820001D6806460C4625B1AB6913B9284600F041
:1058300085F92E4B9C420FD16C68A389B4F90C20DA
:1058400019072CD4DD0611D40923336042F040033C
:105850004FF0FF30A3813EE0254B9C4201D1AC6864
:10586000EBE7244B9C4208BFEC68E6E7580712D5EB
:10587000616B41B104F14403994202D03046FFF715
:1058800075FB00236363A38923F02403A381002312
:10589000636023692360A38943F00803A38123691C
:1058A0004BB9A38903F42073B3F5007F03D02146DD
:1058B000304600F007FAA089B4F90C2010F001037B
:1058C0000AD00023A36063695B42A361236943B9E3
:1058D00010F08000BAD170BD810758BF6369A36022
:1058E000F4E70020F7E700BF0C0000204C6300083D
:1058F0006C6300082C630008062008B500F052FA1B
:105900000120FCF76CF800008A892DE9F04105467A
:1059100010070C4658D44B68002B05DC0B6C002B91
:1059200002DC0020BDE8F081E66A002EF9D00023F9
:1059300012F480522F682B6032D0606DA3895A0711
:1059400005D56368C01A636B0BB1236CC01A0023C2
:105950000246E66A2846216AB047431CA38906D15D
:1059600029681D292CD82A4ACA40D60728D50022E2
:1059700062602269D904226004D5421C01D12B68DF
:1059800003B96065616B2F600029CAD004F144033C
:10599000994202D02846FFF7E9FA00206063C1E788
:1059A000216A01232846B047411CC7D12B68002B30
:1059B000C4D01D2B01D0162B01D12F60B1E7A389D4
:1059C00043F04003A381ADE70F69002FA9D09307EF
:1059D00018BF00230E6808BF4B69A6EB07080F60CD
:1059E0008B60B8F1000F9CDD43463A462846216A99
:1059F000A66AB047002806DCA3894FF0FF3043F0C9
:105A00004003A3818EE70744A8EB0008E9E700BF45
:105A10000100402038B50B6905460C4613B9002536
:105A2000284638BD18B183690BB900F087F8144BCC
:105A30009C421BD16C68B4F90C30002BEFD0626E25
:105A4000D00704D4990502D4A06D00F015F92846BA
:105A50002146FFF759FF636E0546DA07E0D4A389B4
:105A60009B05DDD4A06D00F008F9D9E7054B9C42F9
:105A700001D1AC68DFE7044B9C4208BFEC68DAE771
:105A80004C6300086C6300082C630008002310B509
:105A90000446C0E90033C0E9043383608181436672
:105AA000C2818361194608225C30FDF7A1FB054BDA
:105AB00024626362044BA362044BE362044B2363DE
:105AC00010BD00BFDD5D0008FF5D0008375E000807
:105AD0005B5E0008014900F0AFB800BF155A00082E
